{
  "contractName": "Contact",
  "abi": [
    {
      "inputs": [],
      "stateMutability": "nonpayable",
      "type": "constructor"
    },
    {
      "inputs": [
        {
          "internalType": "uint256",
          "name": "",
          "type": "uint256"
        }
      ],
      "name": "emails",
      "outputs": [
        {
          "internalType": "string",
          "name": "",
          "type": "string"
        }
      ],
      "stateMutability": "view",
      "type": "function",
      "constant": true
    },
    {
      "inputs": [
        {
          "internalType": "uint256",
          "name": "",
          "type": "uint256"
        }
      ],
      "name": "mobiles",
      "outputs": [
        {
          "internalType": "string",
          "name": "",
          "type": "string"
        }
      ],
      "stateMutability": "view",
      "type": "function",
      "constant": true
    },
    {
      "inputs": [
        {
          "internalType": "uint256",
          "name": "",
          "type": "uint256"
        }
      ],
      "name": "names",
      "outputs": [
        {
          "internalType": "string",
          "name": "",
          "type": "string"
        }
      ],
      "stateMutability": "view",
      "type": "function",
      "constant": true
    },
    {
      "inputs": [
        {
          "internalType": "uint256",
          "name": "",
          "type": "uint256"
        }
      ],
      "name": "organizations",
      "outputs": [
        {
          "internalType": "string",
          "name": "",
          "type": "string"
        }
      ],
      "stateMutability": "view",
      "type": "function",
      "constant": true
    },
    {
      "inputs": [],
      "name": "owner",
      "outputs": [
        {
          "internalType": "address",
          "name": "",
          "type": "address"
        }
      ],
      "stateMutability": "view",
      "type": "function",
      "constant": true
    },
    {
      "inputs": [
        {
          "internalType": "string",
          "name": "name",
          "type": "string"
        },
        {
          "internalType": "string",
          "name": "mobile",
          "type": "string"
        },
        {
          "internalType": "string",
          "name": "email",
          "type": "string"
        },
        {
          "internalType": "string",
          "name": "org",
          "type": "string"
        }
      ],
      "name": "insertContact",
      "outputs": [],
      "stateMutability": "nonpayable",
      "type": "function"
    },
    {
      "inputs": [],
      "name": "viewContacts",
      "outputs": [
        {
          "internalType": "string[]",
          "name": "",
          "type": "string[]"
        },
        {
          "internalType": "string[]",
          "name": "",
          "type": "string[]"
        },
        {
          "internalType": "string[]",
          "name": "",
          "type": "string[]"
        },
        {
          "internalType": "string[]",
          "name": "",
          "type": "string[]"
        }
      ],
      "stateMutability": "view",
      "type": "function",
      "constant": true
    }
  ],
  "bytecode": "0x608060405234801561001057600080fd5b50336000806101000a81548173ffffffffffffffffffffffffffffffffffffffff021916908373ffffffffffffffffffffffffffffffffffffffff16021790555061116b806100606000396000f3fe608060405234801561001057600080fd5b506004361061007d5760003560e01c80638da5cb5b1161005b5780638da5cb5b146100fe5780639bc06fba1461011c578063d0675ae31461013d578063e792dd8a1461016d5761007d565b80634622ab0314610082578063695a7d49146100b25780636b845b02146100e2575b600080fd5b61009c60048036038101906100979190610aed565b61019d565b6040516100a99190610bb3565b60405180910390f35b6100cc60048036038101906100c79190610aed565b610249565b6040516100d99190610bb3565b60405180910390f35b6100fc60048036038101906100f79190610d0a565b6102f5565b005b61010661051c565b6040516101139190610e22565b60405180910390f35b610124610540565b6040516101349493929190610f49565b60405180910390f35b61015760048036038101906101529190610aed565b6108a8565b6040516101649190610bb3565b60405180910390f35b61018760048036038101906101829190610aed565b610954565b6040516101949190610bb3565b60405180910390f35b600181815481106101ad57600080fd5b9060005260206000200160009150905080546101c890610fd9565b80601f01602080910402602001604051908101604052809291908181526020018280546101f490610fd9565b80156102415780601f1061021657610100808354040283529160200191610241565b820191906000526020600020905b81548152906001019060200180831161022457829003601f168201915b505050505081565b6003818154811061025957600080fd5b90600052602060002001600091509050805461027490610fd9565b80601f01602080910402602001604051908101604052809291908181526020018280546102a090610fd9565b80156102ed5780601f106102c2576101008083540402835291602001916102ed565b820191906000526020600020905b8154815290600101906020018083116102d057829003601f168201915b505050505081565b3373ffffffffffffffffffffffffffffffffffffffff1660008054906101000a900473ffffffffffffffffffffffffffffffffffffffff1673ffffffffffffffffffffffffffffffffffffffff1614610383576040517f08c379a000000000000000000000000000000000000000000000000000000000815260040161037a90611056565b60405180910390fd5b60058360405161039391906110b2565b908152602001604051809103902060009054906101000a900460ff16156103ef576040517f08c379a00000000000000000000000000000000000000000000000000000000081526004016103e690611115565b60405180910390fd5b60018490806001815401808255809150506001900390600052602060002001600090919091909150908051906020019061042a929190610a00565b50600283908060018154018082558091505060019003906000526020600020016000909190919091509080519060200190610466929190610a00565b506003829080600181540180825580915050600190039060005260206000200160009091909190915090805190602001906104a2929190610a00565b506004819080600181540180825580915050600190039060005260206000200160009091909190915090805190602001906104de929190610a00565b5060016005846040516104f191906110b2565b908152602001604051809103902060006101000a81548160ff02191690831515021790555050505050565b60008054906101000a900473ffffffffffffffffffffffffffffffffffffffff1681565b606080606080600160026003600483805480602002602001604051908101604052809291908181526020016000905b8282101561061b57838290600052602060002001805461058e90610fd9565b80601f01602080910402602001604051908101604052809291908181526020018280546105ba90610fd9565b80156106075780601f106105dc57610100808354040283529160200191610607565b820191906000526020600020905b8154815290600101906020018083116105ea57829003601f168201915b50505050508152602001906001019061056f565b50505050935082805480602002602001604051908101604052809291908181526020016000905b828210156106ee57838290600052602060002001805461066190610fd9565b80601f016020809104026020016040519081016040528092919081815260200182805461068d90610fd9565b80156106da5780601f106106af576101008083540402835291602001916106da565b820191906000526020600020905b8154815290600101906020018083116106bd57829003601f168201915b505050505081526020019060010190610642565b50505050925081805480602002602001604051908101604052809291908181526020016000905b828210156107c157838290600052602060002001805461073490610fd9565b80601f016020809104026020016040519081016040528092919081815260200182805461076090610fd9565b80156107ad5780601f10610782576101008083540402835291602001916107ad565b820191906000526020600020905b81548152906001019060200180831161079057829003601f168201915b505050505081526020019060010190610715565b50505050915080805480602002602001604051908101604052809291908181526020016000905b8282101561089457838290600052602060002001805461080790610fd9565b80601f016020809104026020016040519081016040528092919081815260200182805461083390610fd9565b80156108805780601f1061085557610100808354040283529160200191610880565b820191906000526020600020905b81548152906001019060200180831161086357829003601f168201915b5050505050815260200190600101906107e8565b505050509050935093509350935090919293565b600281815481106108b857600080fd5b9060005260206000200160009150905080546108d390610fd9565b80601f01602080910402602001604051908101604052809291908181526020018280546108ff90610fd9565b801561094c5780601f106109215761010080835404028352916020019161094c565b820191906000526020600020905b81548152906001019060200180831161092f57829003601f168201915b505050505081565b6004818154811061096457600080fd5b90600052602060002001600091509050805461097f90610fd9565b80601f01602080910402602001604051908101604052809291908181526020018280546109ab90610fd9565b80156109f85780601f106109cd576101008083540402835291602001916109f8565b820191906000526020600020905b8154815290600101906020018083116109db57829003601f168201915b505050505081565b828054610a0c90610fd9565b90600052602060002090601f016020900481019282610a2e5760008555610a75565b82601f10610a4757805160ff1916838001178555610a75565b82800160010185558215610a75579182015b82811115610a74578251825591602001919060010190610a59565b5b509050610a829190610a86565b5090565b5b80821115610a9f576000816000905550600101610a87565b5090565b6000604051905090565b600080fd5b600080fd5b6000819050919050565b610aca81610ab7565b8114610ad557600080fd5b50565b600081359050610ae781610ac1565b92915050565b600060208284031215610b0357610b02610aad565b5b6000610b1184828501610ad8565b91505092915050565b600081519050919050565b600082825260208201905092915050565b60005b83811015610b54578082015181840152602081019050610b39565b83811115610b63576000848401525b50505050565b6000601f19601f8301169050919050565b6000610b8582610b1a565b610b8f8185610b25565b9350610b9f818560208601610b36565b610ba881610b69565b840191505092915050565b60006020820190508181036000830152610bcd8184610b7a565b905092915050565b600080fd5b600080fd5b7f4e487b7100000000000000000000000000000000000000000000000000000000600052604160045260246000fd5b610c1782610b69565b810181811067ffffffffffffffff82111715610c3657610c35610bdf565b5b80604052505050565b6000610c49610aa3565b9050610c558282610c0e565b919050565b600067ffffffffffffffff821115610c7557610c74610bdf565b5b610c7e82610b69565b9050602081019050919050565b82818337600083830152505050565b6000610cad610ca884610c5a565b610c3f565b905082815260208101848484011115610cc957610cc8610bda565b5b610cd4848285610c8b565b509392505050565b600082601f830112610cf157610cf0610bd5565b5b8135610d01848260208601610c9a565b91505092915050565b60008060008060808587031215610d2457610d23610aad565b5b600085013567ffffffffffffffff811115610d4257610d41610ab2565b5b610d4e87828801610cdc565b945050602085013567ffffffffffffffff811115610d6f57610d6e610ab2565b5b610d7b87828801610cdc565b935050604085013567ffffffffffffffff811115610d9c57610d9b610ab2565b5b610da887828801610cdc565b925050606085013567ffffffffffffffff811115610dc957610dc8610ab2565b5b610dd587828801610cdc565b91505092959194509250565b600073ffffffffffffffffffffffffffffffffffffffff82169050919050565b6000610e0c82610de1565b9050919050565b610e1c81610e01565b82525050565b6000602082019050610e376000830184610e13565b92915050565b600081519050919050565b600082825260208201905092915050565b6000819050602082019050919050565b600082825260208201905092915050565b6000610e8582610b1a565b610e8f8185610e69565b9350610e9f818560208601610b36565b610ea881610b69565b840191505092915050565b6000610ebf8383610e7a565b905092915050565b6000602082019050919050565b6000610edf82610e3d565b610ee98185610e48565b935083602082028501610efb85610e59565b8060005b85811015610f375784840389528151610f188582610eb3565b9450610f2383610ec7565b925060208a01995050600181019050610eff565b50829750879550505050505092915050565b60006080820190508181036000830152610f638187610ed4565b90508181036020830152610f778186610ed4565b90508181036040830152610f8b8185610ed4565b90508181036060830152610f9f8184610ed4565b905095945050505050565b7f4e487b7100000000000000000000000000000000000000000000000000000000600052602260045260246000fd5b60006002820490506001821680610ff157607f821691505b60208210810361100457611003610faa565b5b50919050565b7f4e6f7420617574686f72697a6564000000000000000000000000000000000000600082015250565b6000611040600e83610b25565b915061104b8261100a565b602082019050919050565b6000602082019050818103600083015261106f81611033565b9050919050565b600081905092915050565b600061108c82610b1a565b6110968185611076565b93506110a6818560208601610b36565b80840191505092915050565b60006110be8284611081565b915081905092915050565b7f436f6e7461637420616c72656164792065786973747300000000000000000000600082015250565b60006110ff601683610b25565b915061110a826110c9565b602082019050919050565b6000602082019050818103600083015261112e816110f2565b905091905056fea26469706673582212200748e2fa06a744d04ea0f357480d1fc3087465362f5fe6bd8b262fe7383028d164736f6c634300080d0033",
  "immutableReferences": {},
  "source": "// pragma solidity >=0.4.22 <0.9.0;\n\n// contract contact {\n//   address owner; //state var\n//   string[] names;\n//   string[] mobiles;\n//   string[] emails;\n//   string[] organization;\n//   mapping(string=>bool) _contracts;\n//   constructor() public{\n//     owner=msg.sender; //global var, storing owner address\n//   }\n// modifier onlyOwner { //function modifier-only owner can save contacts/telegram uses blockchain\n//   require(owner==msg.sender);\n//   _;\n// }\n\n// //inserting the contact into dapp\n// function insertContact(string memory name, string memory mobile, string memory email, string memory, string memory org)public onlyOwner{\n//   require(!_contacts[mobile]); //if mobile is not in contact, like _contacts['8888']->False\n//   names.push(name);\n//   mobiles.push(mobile);\n//   emails.push(email);\n//   organizations.push(org);\n//   contracts[mobile] = true;\n// }\n\n// //read contract from blockchain\n// function viewContacts() public view returns (string[] memory, string[] memory, string[], string[] memory){\n//   return(names, mobiles, emails, organizations);\n// }\n\n\n\n// SPDX-License-Identifier: MIT\npragma solidity ^0.8.0;\n\ncontract Contact {\n    address public owner;\n    string[] public names;\n    string[] public mobiles;\n    string[] public emails;\n    string[] public organizations;\n    mapping(string => bool) private _contacts;\n\n    constructor() {\n        owner = msg.sender;\n    }\n\n    modifier onlyOwner() {\n        require(owner == msg.sender, \"Not authorized\");\n        _;\n    }\n\n    function insertContact(\n        string memory name,\n        string memory mobile,\n        string memory email,\n        string memory org\n    ) public onlyOwner {\n        require(!_contacts[mobile], \"Contact already exists\");\n        names.push(name);\n        mobiles.push(mobile);\n        emails.push(email);\n        organizations.push(org);\n        _contacts[mobile] = true;\n    }\n\n    function viewContacts() \n        public \n        view \n        returns (\n            string[] memory,\n            string[] memory,\n            string[] memory,\n            string[] memory\n        ) \n    {\n        return (names, mobiles, emails, organizations);\n    }\n}\n\n",
  "sourcePath": "C:\\Users\\rajen\\OneDrive\\Desktop\\contractDapp\\contracts\\contact.sol",
  "compiler": {
    "name": "solc",
    "version": "0.8.13+commit.abaa5c0e.Emscripten.clang"
  },
  "schemaVersion": "3.4.16",
  "updatedAt": "2024-09-12T18:18:00.652Z",
  "networkType": "ethereum",
  "devdoc": {
    "kind": "dev",
    "methods": {},
    "version": 1
  },
  "userdoc": {
    "kind": "user",
    "methods": {},
    "version": 1
  }
}